{
  "abi": [
    {
      "inputs": [
        {
          "internalType": "uint256",
          "name": "length",
          "type": "uint256"
        }
      ],
      "name": "SchemaLib_InvalidLength",
      "type": "error"
    },
    {
      "inputs": [],
      "name": "SchemaLib_StaticTypeAfterDynamicType",
      "type": "error"
    },
    {
      "inputs": [
        {
          "internalType": "bytes",
          "name": "data",
          "type": "bytes"
        },
        {
          "internalType": "uint256",
          "name": "start",
          "type": "uint256"
        },
        {
          "internalType": "uint256",
          "name": "end",
          "type": "uint256"
        }
      ],
      "name": "Slice_OutOfBounds",
      "type": "error"
    },
    {
      "inputs": [
        {
          "internalType": "uint256",
          "name": "expected",
          "type": "uint256"
        },
        {
          "internalType": "uint256",
          "name": "received",
          "type": "uint256"
        }
      ],
      "name": "StoreCore_InvalidDataLength",
      "type": "error"
    },
    {
      "inputs": [
        {
          "internalType": "bytes32",
          "name": "tableId",
          "type": "bytes32"
        },
        {
          "internalType": "string",
          "name": "tableIdString",
          "type": "string"
        }
      ],
      "name": "StoreCore_TableNotFound",
      "type": "error"
    },
    {
      "inputs": [],
      "name": "flee",
      "outputs": [],
      "stateMutability": "nonpayable",
      "type": "function"
    },
    {
      "inputs": [],
      "name": "throwBall",
      "outputs": [],
      "stateMutability": "nonpayable",
      "type": "function"
    }
  ],
  "bytecode": {
    "object": "0x608060405234801561001057600080fd5b506124a6806100206000396000f3fe608060405234801561001057600080fd5b50600436106100365760003560e01c806348b97ffd1461003b578063a4aaac6414610045575b600080fd5b61004361004d565b005b61004361010a565b600061007361005a61026b565b73ffffffffffffffffffffffffffffffffffffffff1690565b905060006100808261029d565b80519091506100f0576040517f08c379a000000000000000000000000000000000000000000000000000000000815260206004820152601060248201527f6e6f7420696e20656e636f756e7465720000000000000000000000000000000060448201526064015b60405180910390fd5b6100fd81602001516103a0565b6101068261043c565b5050565b600061011761005a61026b565b905060006101248261029d565b805190915061018f576040517f08c379a000000000000000000000000000000000000000000000000000000000815260206004820152601060248201527f6e6f7420696e20656e636f756e7465720000000000000000000000000000000060448201526064016100e7565b600082826020015183604001516001436101a99190611fd4565b60408051602081019590955284019290925260608301524060808201524460a082015260c00160408051601f19818403018152919052805160209091012090506101f4600282612001565b600003610222576102068360016104be565b61021482602001518461056a565b61021d8361043c565b505050565b6002826040015110610246576102398360026104be565b61021482602001516103a0565b6102518360006104be565b61021d83836040015160016102669190612023565b610624565b7fffffffffffffffffffffffffffffffffffffffffffffffffffffffffffffffec36013560601c8061029a5750335b90565b6040805160608101825260008082526020820181905281830181905282516001808252818501909452919290919081602001602082028036833701905050905082816000815181106102f1576102f1612051565b6020908102919091018101919091526040805160009281018390527f456e636f756e7465720000000000000000000000000000000000000000000000603082015261035d910160405160208183030381529060405261034f90612067565b836103586106ca565b6107cd565b604080516060810182526000808252602080830182815293830191825284015160f81c15158252602184015190925260418301519091529091505b949350505050565b6040805160018082528183019092526000916020808301908036833701905050905081816000815181106103d6576103d6612051565b602090810291909101810191909152604080516000928101929092527f4d6f6e7374657200000000000000000000000000000000000000000000000000603083015261010691015b60405160208183030381529060405261043690612067565b8261087a565b60408051600180825281830190925260009160208083019080368337019050509050818160008151811061047257610472612051565b602090810291909101810191909152604080516000928101929092527f456e636f756e74657200000000000000000000000000000000000000000000006030830152610106910161041e565b60006104c982610905565b6040805160018082528183019092529192506000919060208083019080368337019050509050838160008151811061050357610503612051565b602090810291909101810191909152604080516000818401527f4d6f6e7374657243617463684174746500000000000000000000000000000000603082015281518082039093018352810190526105649061055d90612067565b828461092e565b50505050565b6040805160018082528183019092526000916020808301908036833701905050905082816000815181106105a0576105a0612051565b602090810291909101810191909152604080516000818401527f4f776e65644279000000000000000000000000000000000000000000000000006030820152815180820390930183528101905261021d906105fa90612067565b8260008560405160200161061091815260200190565b6040516020818303038152906040526109bd565b60408051600180825281830190925260009160208083019080368337019050509050828160008151811061065a5761065a612051565b602090810291909101810191909152604080516000818401527f456e636f756e74657200000000000000000000000000000000000000000000006030820152815180820390930183528101905261021d906106b490612067565b8260028560405160200161061091815260200190565b604080516003808252608082019092526000918291906020820160608036833701905050905060608160008151811061070557610705612051565b602002602001019060c581111561071e5761071e61208e565b908160c58111156107315761073161208e565b81525050605f8160018151811061074a5761074a612051565b602002602001019060c58111156107635761076361208e565b908160c58111156107765761077661208e565b81525050601f8160028151811061078f5761078f612051565b602002602001019060c58111156107a8576107a861208e565b908160c58111156107bb576107bb61208e565b9052506107c781610a55565b91505090565b60606107d7610ce1565b156107ee576107e7848484610d5f565b9050610873565b6040517f419b58fd000000000000000000000000000000000000000000000000000000008152339063419b58fd9061082e908790879087906004016120df565b600060405180830381865afa15801561084b573d6000803e3d6000fd5b505050506040513d6000823e601f3d908101601f191682016040526107e79190810190612134565b9392505050565b610882610ce1565b15610891576101068282610ec4565b6040517f505a181d000000000000000000000000000000000000000000000000000000008152339063505a181d906108cf90859085906004016121d6565b600060405180830381600087803b1580156108e957600080fd5b505af11580156108fd573d6000803e3d6000fd5b505050505050565b60608160405160200161091891906121ef565b6040516020818303038152906040529050919050565b610936610ce1565b156109465761021d83838361105a565b6040517fbe83698c000000000000000000000000000000000000000000000000000000008152339063be83698c906109869086908690869060040161224a565b600060405180830381600087803b1580156109a057600080fd5b505af11580156109b4573d6000803e3d6000fd5b50505050505050565b6109c5610ce1565b156109db576109d684848484611168565b610564565b6040517f114a7266000000000000000000000000000000000000000000000000000000008152339063114a726690610a1d90879087908790879060040161227f565b600060405180830381600087803b158015610a3757600080fd5b505af1158015610a4b573d6000803e3d6000fd5b5050505050505050565b6000601c82511115610a985781516040517f5318beb90000000000000000000000000000000000000000000000000000000081526004016100e791815260200190565b60008060008060005b8651811015610bc4576000610adf888381518110610ac157610ac1612051565b602002602001015160c5811115610ada57610ada61208e565b611353565b905061ffff811615610b35578215610b23576040517ff1e56be400000000000000000000000000000000000000000000000000000000815260040160405180910390fd5b83610b2d816122b3565b945050610b3a565b600192505b610b4481866122d2565b9450610bb986610b55846004612023565b8a8581518110610b6757610b67612051565b602002602001015160c5811115610b8057610b8061208e565b60f81b6008820281811c7fff0000000000000000000000000000000000000000000000000000000000000090911c198416179392505050565b955050600101610aa1565b506000828751610bd491906122f8565b905060058160ff161115610c19576040517f5318beb900000000000000000000000000000000000000000000000000000000815260ff821660048201526024016100e7565b7dffffffffffffffffffffffffffffffffffffffffffffffffffffffffffff851660f085901b1794507fffff00ffffffffffffffffffffffffffffffffffffffffffffffffffffffffff85167dff000000000000000000000000000000000000000000000000000000000060e885901b161794507fffffff00ffffffffffffffffffffffffffffffffffffffffffffffffffffffff85167cff0000000000000000000000000000000000000000000000000000000060e083901b16175b979650505050505050565b6000303b808203610cf457600191505090565b3073ffffffffffffffffffffffffffffffffffffffff1663a5c2f0076040518163ffffffff1660e01b815260040160006040518083038186803b158015610d3a57600080fd5b505afa925050508015610d4b575060015b610d5757600091505090565b600191505090565b60606000610d6d8360f01c90565b905080600080610d7c86611404565b60ff1690508015610dc757610d918888611415565b91506000610d9f8360c81c90565b1115610dc757610daf8260c81c90565b610dba906020612023565b610dc49084612023565b92505b60008367ffffffffffffffff811115610de257610de261203b565b6040519080825280601f01601f191660200182016040528015610e0c576020820181803683370190505b50905060208101610e1f8a8a888461142c565b610e298460c81c90565b600003610e3d575094506108739350505050565b610e478682612023565b8481529050610e57602082612023565b905060005b838160ff161015610eb5576000610e748c8c84611454565b90506000610e858760ff85166114ad565b9050610e9482826000876114df565b610e9e8185612023565b935050508080610ead906122b3565b915050610e5c565b50909998505050505050505050565b6000610ecf83611594565b90507f2cc8610b80ef19409ae51ecbdd9c137960fb22ae9ef2d817d36ec1b685d68ecd8383604051610f029291906121d6565b60405180910390a16000610f15846115e9565b905060005b8151811015610fc2576000828281518110610f3757610f37612051565b602002602001015190508073ffffffffffffffffffffffffffffffffffffffff1663b51fef6c87876040518363ffffffff1660e01b8152600401610f7c9291906121d6565b600060405180830381600087803b158015610f9657600080fd5b505af1158015610faa573d6000803e3d6000fd5b50505050508080610fba9061231b565b915050610f1a565b506000610fcf85856116be565b9050611029816000610fe18660f01c90565b67ffffffffffffffff811115610ff957610ff961203b565b6040519080825280601f01601f191660200182016040528015611023576020820181803683370190505b50611714565b61103283611404565b60ff16600003611043575050505050565b600061104f8686611729565b6000815590506108fd565b600061106584611594565b90506110718183611760565b50507f230ea578f076e518b96d8b1b4ca2e5dc4898fd02d11e43c9f067c22d1c391d3b8484846040516110a69392919061224a565b60405180910390a160006110b9856115e9565b905060005b81518110156108fd5760008282815181106110db576110db612051565b602002602001015190508073ffffffffffffffffffffffffffffffffffffffff166382b6745f8888886040518463ffffffff1660e01b81526004016111229392919061224a565b600060405180830381600087803b15801561113c57600080fd5b505af1158015611150573d6000803e3d6000fd5b505050505080806111609061231b565b9150506110be565b600061117385611594565b90507fd01f9f1368f831528fc9fe6442366b2b7d957fbfff3bcf7c24d9ab5fe51f8c46858585856040516111aa949392919061227f565b60405180910390a160006111bd866115e9565b905060005b815181101561126e5760008282815181106111df576111df612051565b602002602001015190508073ffffffffffffffffffffffffffffffffffffffff1663469b7ee2898989896040518563ffffffff1660e01b8152600401611228949392919061227f565b600060405180830381600087803b15801561124257600080fd5b505af1158015611256573d6000803e3d6000fd5b505050505080806112669061231b565b9150506111c2565b50611278826117fe565b60ff168460ff16101561129757611292868684878761180a565b6112a4565b6112a486868487876118b0565b60005b81518110156109b45760008282815181106112c4576112c4612051565b602002602001015190508073ffffffffffffffffffffffffffffffffffffffff16636b3d7d5f898989896040518563ffffffff1660e01b815260040161130d949392919061227f565b600060405180830381600087803b15801561132757600080fd5b505af115801561133b573d6000803e3d6000fd5b5050505050808061134b9061231b565b9150506112a7565b6000808260c58111156113685761136861208e565b60ff169050602081101561138157610873816001612023565b60408110156113a1576020611397826001612023565b6108739190611fd4565b60608110156113b7576040611397826001612023565b60608360c58111156113cb576113cb61208e565b036113d95750600192915050565b60618360c58111156113ed576113ed61208e565b036113fb5750601492915050565b50600092915050565b6000601882901b5b60f81c92915050565b6000806114228484611729565b9050610398815490565b811561056457600061143e85856116be565b905061144d81846000856114df565b5050505050565b60007f86425bff6b57326c7859e89024fe4f238ca327a1ae4a230180dd2f0e88aaa7d984848460405160200161148d9493929190612335565b60408051601f198184030181529190528051602090910120949350505050565b6000806114bb836005612368565b6114c6906007612023565b90506114d484826008021b90565b60d81c949350505050565b6020820484019350602082816114f7576114f7611feb565b06915081156115485760208290036000600019600883021c1990508554600885021b811984511682821617845250818511611533575050610564565b61153e600187612023565b9550509283900392015b60208310611570578354815261155f600185612023565b9350601f1990920191602001611548565b8215610564576000600019600885021c198251865482169119161782525050505050565b600061159f826118ed565b9050806115e457816115b0836119a8565b6040517fd623a70d0000000000000000000000000000000000000000000000000000000081526004016100e7929190612387565b919050565b6040805160018082528183019092526060916000919060208083019080368337019050509050828160008151811061162357611623612051565b602090810291909101810191909152604080517f6d756473746f7265000000000000000000000000000000000000000000000000818401527f486f6f6b73000000000000000000000000000000000000000000000000000000603082015281518082039093018352810190526000906116a79061169f90612067565b8360006119bd565b90506103986116b98260008451611a17565b611aa7565b60007f86425bff6b57326c7859e89024fe4f238ca327a1ae4a230180dd2f0e88aaa7d983836040516020016116f5939291906123a0565b60408051601f1981840301815291905280516020909101209392505050565b60006020820190506105648484838551611ab8565b60007f86425bff6b57326c7859e89024fe4f238ca327a1ae4a230180dd2f0e88aaa7d983836040516020016116f5939291906123bf565b60008061176d8460f01c90565b915081600061177b86611404565b60ff1611156117af578284016020015191506117978260c81c90565b6117a2906020612023565b6117ac9082612023565b90505b835181146117f65783516040517f521b3d330000000000000000000000000000000000000000000000000000000081526100e7918391600401918252602082015260400190565b509250929050565b6000601082901b61140c565b60006118198460ff8516611b76565b905081516118328260c5811115610ada57610ada61208e565b146118895761184c8160c5811115610ada57610ada61208e565b82516040517f521b3d33000000000000000000000000000000000000000000000000000000008152600481019290925260248201526044016100e7565b600061189587876116be565b905060006118a38686611ba2565b9050610a4b828286611714565b60006118bb846117fe565b6118c590846122f8565b90506118d48686838551611bf6565b60006118e1878784611454565b90506109b48184611c28565b60408051600180825281830190925260009182919060208083019080368337019050509050828160008151811061192657611926612051565b602090810291909101810191909152604080517f6d756473746f7265000000000000000000000000000000000000000000000000818401527f736368656d61000000000000000000000000000000000000000000000000000060308201528151808203909301835281019052600090611422906119a290612067565b836116be565b60608160405160200161091891815260200190565b60606119c7610ce1565b156119d7576107e7848484611c34565b6040517fd03edb8c000000000000000000000000000000000000000000000000000000008152339063d03edb8c9061082e9087908790879060040161241f565b6000818311158015611a2a575083518211155b611a66578383836040517f23230fa30000000000000000000000000000000000000000000000000000000081526004016100e79392919061244b565b60208401611a748482612023565b90506000611a828585611fd4565b6fffffffffffffffffffffffffffffffff1660809290921b9190911795945050505050565b606060006108738360146000611c58565b602083048401935060208381611ad057611ad0611feb565b0692508215611b295760208390036000600019600884021c1990506008850281811c91508451811c9050811987541682821617875550818311611b14575050610564565b611b1f600187612023565b9550509182019190035b60208110611b525781518455611b40600185612023565b935060209190910190601f1901611b29565b8015610564576000600019600883021c198554845182169119161785555050505050565b6000611b8e83611b87846004612023565b6008021b90565b60f81c60c58111156108735761087361208e565b600080805b8360ff16811015611bee57611bd0611bbf8683611b76565b60c5811115610ada57610ada61208e565b611bda9083612023565b915080611be68161231b565b915050611ba7565b509392505050565b6000611c028585611729565b90506000611c0e825490565b9050611c1e8160ff861685611d9b565b80835590506108fd565b61010682600083611714565b60606000611c4185611594565b9050611c4f85858584611e74565b95945050505050565b60606000611c668560801c90565b90506fffffffffffffffffffffffffffffffff8516600084611c9e57611c8d866008612368565b611c9990610100611fd4565b611ca1565b60005b90506000868381611cb457611cb4611feb565b049050611cc18784612001565b15611d4e576040517f08c379a000000000000000000000000000000000000000000000000000000000815260206004820152603d60248201527f756e7061636b546f41727261793a207061636b65644c656e677468206d75737460448201527f2062652061206d756c7469706c65206f6620656c656d656e7453697a6500000060648201526084016100e7565b602080820201604051955080860160405250808552600060208601855b83831015611d8d578051851c8252600192909201916020909101908901611d6b565b505050505050509392505050565b60008381611da98260c81c90565b90506000611dba878760ff166114ad565b9050808510611dde57611dcd8186611fd4565b611dd79083612023565b9150611df5565b611de88582611fd4565b611df29083611fd4565b91505b6000611e02876005612368565b611e0d906007612023565b905078ffffffffffffffffffffffffffffffffffffffffffffffffff841660c884901b1793507fffffffffff0000000000000000000000000000000000000000000000000000006008820290811c19851660d888901b90911c175b98975050505050505050565b6060611e7f826117fe565b60ff168360ff161015611e9f57611e9885858585611eab565b9050610398565b611e9885858585611f0b565b60606000611ebc8360ff8616611b76565b90506000611ed58260c5811115610ada57610ada61208e565b90506000611ee388886116be565b90506000611ef18688611ba2565b9050611efe828483611f58565b9998505050505050505050565b60606000611f18836117fe565b611f2290856122f8565b90506000611f31878784611454565b90506000611f4c8360ff16611f468a8a611415565b906114ad565b9050611e688282611fb0565b60608267ffffffffffffffff811115611f7357611f7361203b565b6040519080825280601f01601f191660200182016040528015611f9d576020820181803683370190505b50905060208101611bee858585846114df565b606061087383836000611f58565b634e487b7160e01b600052601160045260246000fd5b600082821015611fe657611fe6611fbe565b500390565b634e487b7160e01b600052601260045260246000fd5b60008261201e57634e487b7160e01b600052601260045260246000fd5b500690565b6000821982111561203657612036611fbe565b500190565b634e487b7160e01b600052604160045260246000fd5b634e487b7160e01b600052603260045260246000fd5b80516020808301519190811015612088576000198160200360031b1b821691505b50919050565b634e487b7160e01b600052602160045260246000fd5b600081518084526020808501945080840160005b838110156120d4578151875295820195908201906001016120b8565b509495945050505050565b8381526060602082015260006120f860608301856120a4565b9050826040830152949350505050565b60005b8381101561212357818101518382015260200161210b565b838111156105645750506000910152565b60006020828403121561214657600080fd5b815167ffffffffffffffff8082111561215e57600080fd5b818401915084601f83011261217257600080fd5b8151818111156121845761218461203b565b604051601f8201601f19908116603f011681019083821181831017156121ac576121ac61203b565b816040528281528760208487010111156121c557600080fd5b610cd6836020830160208801612108565b82815260406020820152600061039860408301846120a4565b60006003831061220f57634e487b7160e01b600052602160045260246000fd5b5060f89190911b815260010190565b60008151808452612236816020860160208601612108565b601f01601f19169290920160200192915050565b83815260606020820152600061226360608301856120a4565b8281036040840152612275818561221e565b9695505050505050565b84815260806020820152600061229860808301866120a4565b60ff851660408401528281036060840152610cd6818561221e565b600060ff821660ff81036122c9576122c9611fbe565b60010192915050565b600061ffff8083168185168083038211156122ef576122ef611fbe565b01949350505050565b600060ff821660ff84168082101561231257612312611fbe565b90039392505050565b6000600019820361232e5761232e611fbe565b5060010190565b84815283602082015260806040820152600061235460808301856120a4565b905060ff8316606083015295945050505050565b600081600019048311821515161561238257612382611fbe565b500290565b828152604060208201526000610398604083018461221e565b838152826020820152606060408201526000611c4f60608301846120a4565b8381528260208201526080604082015260006123de60808301846120a4565b8281036060840152600681527f6c656e6774680000000000000000000000000000000000000000000000000000602082015260408101915050949350505050565b83815260606020820152600061243860608301856120a4565b905060ff83166040830152949350505050565b60608152600061245e606083018661221e565b6020830194909452506040015291905056fea26469706673582212207a8321fc102a3a5297b415347753c55625638c9e2d91377c4bf59799bbc09ba464736f6c634300080d0033",
    "linkReferences": {}
  },
  "methodIdentifiers": {
    "flee()": "48b97ffd",
    "throwBall()": "a4aaac64"
  },
  "id": 108
}