{
  "abi": [
    {
      "inputs": [
        {
          "internalType": "uint256",
          "name": "length",
          "type": "uint256"
        }
      ],
      "name": "SchemaLib_InvalidLength",
      "type": "error"
    },
    {
      "inputs": [],
      "name": "SchemaLib_StaticTypeAfterDynamicType",
      "type": "error"
    },
    {
      "inputs": [
        {
          "internalType": "bytes",
          "name": "data",
          "type": "bytes"
        },
        {
          "internalType": "uint256",
          "name": "start",
          "type": "uint256"
        },
        {
          "internalType": "uint256",
          "name": "end",
          "type": "uint256"
        }
      ],
      "name": "Slice_OutOfBounds",
      "type": "error"
    },
    {
      "inputs": [
        {
          "internalType": "uint256",
          "name": "expected",
          "type": "uint256"
        },
        {
          "internalType": "uint256",
          "name": "received",
          "type": "uint256"
        }
      ],
      "name": "StoreCore_InvalidDataLength",
      "type": "error"
    },
    {
      "inputs": [
        {
          "internalType": "bytes32",
          "name": "tableId",
          "type": "bytes32"
        },
        {
          "internalType": "string",
          "name": "tableIdString",
          "type": "string"
        }
      ],
      "name": "StoreCore_TableNotFound",
      "type": "error"
    },
    {
      "inputs": [
        {
          "internalType": "uint32",
          "name": "x",
          "type": "uint32"
        },
        {
          "internalType": "uint32",
          "name": "y",
          "type": "uint32"
        }
      ],
      "name": "move",
      "outputs": [],
      "stateMutability": "nonpayable",
      "type": "function"
    },
    {
      "inputs": [
        {
          "internalType": "uint32",
          "name": "x",
          "type": "uint32"
        },
        {
          "internalType": "uint32",
          "name": "y",
          "type": "uint32"
        }
      ],
      "name": "spawn",
      "outputs": [],
      "stateMutability": "nonpayable",
      "type": "function"
    }
  ],
  "bytecode": {
    "object": "0x608060405234801561001057600080fd5b50612c4b806100206000396000f3fe608060405234801561001057600080fd5b50600436106100365760003560e01c806316254d8d1461003b578063a3a8e72d14610050575b600080fd5b61004e61004936600461271f565b610063565b005b61004e61005e36600461271f565b61030f565b6000610089610070610470565b73ffffffffffffffffffffffffffffffffffffffff1690565b9050610094816104a2565b156100e65760405162461bcd60e51b815260206004820152600b60248201527f63616e6e6f74206d6f766500000000000000000000000000000000000000000060448201526064015b60405180910390fd5b6100ef81610556565b1561013c5760405162461bcd60e51b815260206004820152601f60248201527f63616e6e6f74206d6f766520647572696e6720616e20656e636f756e7465720060448201526064016100dd565b600080610148836105da565b915091506101588282878761069c565b63ffffffff166001146101ad5760405162461bcd60e51b815260206004820181905260248201527f63616e206f6e6c79206d6f766520746f2061646a6163656e742073706163657360448201526064016100dd565b6000806101b8610712565b509092509050816101c98189612768565b6101d391906127a6565b9650806101e08188612768565b6101ea91906127a6565b6040805163ffffffff808b16602080840191909152908416828401528251808303840181526060909201909252805191012090965061022881610794565b156102755760405162461bcd60e51b815260206004820152601860248201527f74686973207370616365206973206f627374727563746564000000000000000060448201526064016100dd565b610280868989610818565b6102898661090b565b801561029957506102998161098f565b1561030557600086826102ad6001436127c9565b60408051602081019490945283019190915240606082015244608082015260a00160408051601f19818403018152919052805160209091012090506102f36005826127e0565b6000036103035761030387610a13565b505b5050505050505050565b600061031c610070610470565b9050610327816104a2565b156103745760405162461bcd60e51b815260206004820152600f60248201527f616c726561647920737061776e6564000000000000000000000000000000000060448201526064016100dd565b60008061037f610712565b509092509050816103908187612768565b61039a91906127a6565b9450806103a78186612768565b6103b191906127a6565b6040805163ffffffff80891660208084019190915290841682840152825180830384018152606090920190925280519101209094506103ef81610794565b1561043c5760405162461bcd60e51b815260206004820152601860248201527f74686973207370616365206973206f627374727563746564000000000000000060448201526064016100dd565b610447846001610ab8565b610452848787610818565b61045d846001610b7d565b610468846001610bff565b505050505050565b7fffffffffffffffffffffffffffffffffffffffffffffffffffffffffffffffec36013560601c8061049f5750335b90565b6040805160018082528183019092526000918291906020808301908036833701905050905082816000815181106104db576104db61280a565b6020908102919091018101919091526040805160009281018390527f506c617965720000000000000000000000000000000000000000000000000000603082015261054291015b60405160208183030381529060405261053a90612820565b836000610c81565b602081015190915060f81c5b949350505050565b60408051600180825281830190925260009182919060208083019080368337019050509050828160008151811061058f5761058f61280a565b6020908102919091018101919091526040805160009281018390527f456e636f756e746572000000000000000000000000000000000000000000000060308201526105429101610522565b604080516001808252818301909252600091829182916020808301908036833701905050905083816000815181106106145761061461280a565b6020908102919091018101919091526040805160009281018390527f506f736974696f6e0000000000000000000000000000000000000000000000006030820152610680910160405160208183030381529060405261067290612820565b8361067b610d2e565b610deb565b602081015160249091015160e091821c97911c95509350505050565b6000808363ffffffff168663ffffffff16116106c1576106bc8685612847565b6106cb565b6106cb8487612847565b905060008363ffffffff168663ffffffff16116106f1576106ec8685612847565b6106fb565b6106fb8487612847565b90506107078183612768565b979650505050505050565b6040805160008082526020820183528183018190527f4d6170436f6e666967000000000000000000000000000000000000000000000060508301528251808303840181526060808401909452909283929091839061077c9061077390612820565b8361067b610e45565b905061078781610f0a565b9450945094505050909192565b6040805160018082528183019092526000918291906020808301908036833701905050905082816000815181106107cd576107cd61280a565b6020908102919091018101919091526040805160009281018390527f4f62737472756374696f6e00000000000000000000000000000000000000000060308201526105429101610522565b6040805160e084811b7fffffffff000000000000000000000000000000000000000000000000000000009081166020808501919091529185901b16602483015282516008818403018152600160288401818152606885019095529093600093909260489091019080368337019050509050848160008151811061089d5761089d61280a565b602090810291909101810191909152604080516000928101929092527f506f736974696f6e000000000000000000000000000000000000000000000000603083015261090491015b6040516020818303038152906040526108fd90612820565b8284610f7e565b5050505050565b6040805160018082528183019092526000918291906020808301908036833701905050905082816000815181106109445761094461280a565b6020908102919091018101919091526040805160009281018390527f456e636f756e74657261626c650000000000000000000000000000000000000060308201526105429101610522565b6040805160018082528183019092526000918291906020808301908036833701905050905082816000815181106109c8576109c861280a565b6020908102919091018101919091526040805160009281018390527f456e636f756e746572547269676765720000000000000000000000000000000060308201526105429101610522565b600081610a216001436127c9565b60408051602081019390935290409082015244606082015260800160408051808303601f19018152919052805160209091012090506000610a636003836127e0565b610a6e906001612882565b6003811115610a7f57610a7f61286c565b9050610a8b828261100d565b610ab383604051806060016040528060011515815260200185815260200160008152506110ed565b505050565b604080516001808252818301909252600091602080830190803683370190505090508281600081518110610aee57610aee61280a565b602090810291909101810191909152604080516000928101929092527f506c6179657200000000000000000000000000000000000000000000000000006030830152610ab391015b604051602081830303815290604052610b4e90612820565b82600085604051602001610b6991151560f81b815260010190565b604051602081830303815290604052611109565b604080516001808252818301909252600091602080830190803683370190505090508281600081518110610bb357610bb361280a565b602090810291909101810191909152604080516000928101929092527f4d6f7661626c65000000000000000000000000000000000000000000000000006030830152610ab39101610b36565b604080516001808252818301909252600091602080830190803683370190505090508281600081518110610c3557610c3561280a565b602090810291909101810191909152604080516000928101929092527f456e636f756e74657261626c65000000000000000000000000000000000000006030830152610ab39101610b36565b6060610c8b61119d565b15610ca257610c9b84848461121b565b9050610d27565b6040517fd03edb8c000000000000000000000000000000000000000000000000000000008152339063d03edb8c90610ce2908790879087906004016128d5565b600060405180830381865afa158015610cff573d6000803e3d6000fd5b505050506040513d6000823e601f3d908101601f19168201604052610c9b919081019061292d565b9392505050565b60408051600280825260608201835260009283929190602083019080368337019050509050600381600081518110610d6857610d6861280a565b602002602001019060c5811115610d8157610d8161286c565b908160c5811115610d9457610d9461286c565b81525050600381600181518110610dad57610dad61280a565b602002602001019060c5811115610dc657610dc661286c565b908160c5811115610dd957610dd961286c565b905250610de58161123f565b91505090565b6060610df561119d565b15610e0557610c9b8484846114a3565b6040517f419b58fd000000000000000000000000000000000000000000000000000000008152339063419b58fd90610ce2908790879087906004016129cf565b6040805160038082526080820190925260009182919060208201606080368337019050509050600381600081518110610e8057610e8061280a565b602002602001019060c5811115610e9957610e9961286c565b908160c5811115610eac57610eac61286c565b81525050600381600181518110610ec557610ec561280a565b602002602001019060c5811115610ede57610ede61286c565b908160c5811115610ef157610ef161286c565b8152505060c481600281518110610dad57610dad61280a565b60008060606000610f2085600860209101015190565b6020860151909150602486015160e09190911c945060e01c9250600885511115610f7657602880610f52836000611608565b610f5c9082612882565b9050610f71610f6c88848461163a565b6116ca565b935050505b509193909250565b610f8661119d565b15610f9657610ab383838361174a565b6040517f8ed41f2f0000000000000000000000000000000000000000000000000000000081523390638ed41f2f90610fd690869086908690600401612a24565b600060405180830381600087803b158015610ff057600080fd5b505af1158015611004573d6000803e3d6000fd5b50505050505050565b6040805160018082528183019092526000916020808301908036833701905050905082816000815181106110435761104361280a565b602090810291909101810191909152604080516000818401527f4d6f6e737465720000000000000000000000000000000000000000000000000060308201528151808203909301835281019052610ab39061109d90612820565b8260008560038111156110b2576110b261286c565b604051602001610b69919060f89190911b7fff0000000000000000000000000000000000000000000000000000000000000016815260010190565b6111058282600001518360200151846040015161192b565b5050565b61111161119d565b1561112757611122848484846119de565b611197565b6040517f114a7266000000000000000000000000000000000000000000000000000000008152339063114a726690611169908790879087908790600401612a59565b600060405180830381600087803b15801561118357600080fd5b505af1158015610305573d6000803e3d6000fd5b50505050565b6000303b8082036111b057600191505090565b3073ffffffffffffffffffffffffffffffffffffffff1663a5c2f0076040518163ffffffff1660e01b815260040160006040518083038186803b1580156111f657600080fd5b505afa925050508015611207575060015b61121357600091505090565b600191505090565b6060600061122885611bc9565b905061123685858584611c1e565b95945050505050565b6000601c825111156112825781516040517f5318beb90000000000000000000000000000000000000000000000000000000081526004016100dd91815260200190565b60008060008060005b86518110156113ae5760006112c98883815181106112ab576112ab61280a565b602002602001015160c58111156112c4576112c461286c565b611c55565b905061ffff81161561131f57821561130d576040517ff1e56be400000000000000000000000000000000000000000000000000000000815260040160405180910390fd5b8361131781612a8d565b945050611324565b600192505b61132e8186612aac565b94506113a38661133f846004612882565b8a85815181106113515761135161280a565b602002602001015160c581111561136a5761136a61286c565b60f81b6008820281811c7fff0000000000000000000000000000000000000000000000000000000000000090911c198416179392505050565b95505060010161128b565b5060008287516113be9190612ac9565b905060058160ff161115611403576040517f5318beb900000000000000000000000000000000000000000000000000000000815260ff821660048201526024016100dd565b60e01b7cff00000000000000000000000000000000000000000000000000000000167fffff0000ffffffffffffffffffffffffffffffffffffffffffffffffffffffff60f09490941b939093167bffffffffffffffffffffffffffffffffffffffffffffffffffffffff9094169390931760e89190911b7dff00000000000000000000000000000000000000000000000000000000001617179392505050565b606060006114b18360f01c90565b9050806000806114c086611d06565b60ff169050801561150b576114d58888611d17565b915060006114e38360c81c90565b111561150b576114f38260c81c90565b6114fe906020612882565b6115089084612882565b92505b60008367ffffffffffffffff811115611526576115266127f4565b6040519080825280601f01601f191660200182016040528015611550576020820181803683370190505b509050602081016115638a8a8884611d2e565b61156d8460c81c90565b60000361158157509450610d279350505050565b61158b8682612882565b848152905061159b602082612882565b905060005b838160ff1610156115f95760006115b88c8c84611d4f565b905060006115c98760ff8516611608565b90506115d88282600087611da8565b6115e28185612882565b9350505080806115f190612a8d565b9150506115a0565b50909998505050505050505050565b600080611616836005612aec565b611621906007612882565b905061162f84826008021b90565b60d81c949350505050565b600081831115801561164d575083518211155b611689578383836040517f23230fa30000000000000000000000000000000000000000000000000000000081526004016100dd93929190612b0b565b602084016116978482612882565b905060006116a585856127c9565b6fffffffffffffffffffffffffffffffff1660809290921b9190911795945050505050565b606060006116d88360801c90565b90506fffffffffffffffffffffffffffffffff83168067ffffffffffffffff811115611706576117066127f4565b6040519080825280601f01601f191660200182016040528015611730576020820181803683370190505b50925060208301611742838284611e5d565b505050919050565b600061175584611bc9565b90506000806117648385611e91565b915091507f912af873e852235aae78a1d25ae9bb28b616a67c36898c53a14fd8184504ee3286868660405161179b93929190612a24565b60405180910390a160006117ae87611f2f565b905060005b815181101561185d5760008282815181106117d0576117d061280a565b602002602001015190508073ffffffffffffffffffffffffffffffffffffffff166382b6745f8a8a8a6040518463ffffffff1660e01b815260040161181793929190612a24565b600060405180830381600087803b15801561183157600080fd5b505af1158015611845573d6000803e3d6000fd5b5050505050808061185590612b30565b9150506117b3565b50600061186a8888611fee565b90506020860161187d8260008388612044565b611888856020612882565b6118929082612882565b905061189d86611d06565b60ff166000036118b257505050505050505050565b60006118be8a8a612102565b858155905060008060005b6118d28a611d06565b60ff168160ff16101561191c576118ea8d8d83611d4f565b92506118f98860ff8316611608565b91506119088360008785612044565b6119128286612882565b94506001016118c9565b50505050505050505050505050565b6040805184151560f81b6020808301919091526021820185905260418083018590528351808403909101815260016061840181815260a18501909552909360009390926081909101908036833701905050905085816000815181106119925761199261280a565b602090810291909101810191909152604080516000928101929092527f456e636f756e7465720000000000000000000000000000000000000000000000603083015261046891016108e5565b60006119e985611bc9565b90507fd01f9f1368f831528fc9fe6442366b2b7d957fbfff3bcf7c24d9ab5fe51f8c4685858585604051611a209493929190612a59565b60405180910390a16000611a3386611f2f565b905060005b8151811015611ae4576000828281518110611a5557611a5561280a565b602002602001015190508073ffffffffffffffffffffffffffffffffffffffff1663469b7ee2898989896040518563ffffffff1660e01b8152600401611a9e9493929190612a59565b600060405180830381600087803b158015611ab857600080fd5b505af1158015611acc573d6000803e3d6000fd5b50505050508080611adc90612b30565b915050611a38565b50611aee82612139565b60ff168460ff161015611b0d57611b088686848787612145565b611b1a565b611b1a86868487876121eb565b60005b8151811015611004576000828281518110611b3a57611b3a61280a565b602002602001015190508073ffffffffffffffffffffffffffffffffffffffff16636b3d7d5f898989896040518563ffffffff1660e01b8152600401611b839493929190612a59565b600060405180830381600087803b158015611b9d57600080fd5b505af1158015611bb1573d6000803e3d6000fd5b50505050508080611bc190612b30565b915050611b1d565b6000611bd482612228565b905080611c195781611be5836122e3565b6040517fd623a70d0000000000000000000000000000000000000000000000000000000081526004016100dd929190612b4a565b919050565b6060611c2982612139565b60ff168360ff161015611c4957611c428585858561230e565b905061054e565b611c428585858561236e565b6000808260c5811115611c6a57611c6a61286c565b60ff1690506020811015611c8357610d27816001612882565b6040811015611ca3576020611c99826001612882565b610d2791906127c9565b6060811015611cb9576040611c99826001612882565b60608360c5811115611ccd57611ccd61286c565b03611cdb5750600192915050565b60618360c5811115611cef57611cef61286c565b03611cfd5750601492915050565b50600092915050565b6000601882901b5b60f81c92915050565b600080611d248484612102565b905061054e815490565b8115611197576000611d408585611fee565b90506109048184600085611da8565b60007f86425bff6b57326c7859e89024fe4f238ca327a1ae4a230180dd2f0e88aaa7d9848484604051602001611d889493929190612b63565b60408051601f198184030181529190528051602090910120949350505050565b602082048401935060208281611dc057611dc0612790565b0691508115611e115760208290036000600019600883021c1990508554600885021b811984511682821617845250818511611dfc575050611197565b611e07600187612882565b9550509283900392015b60208310611e395783548152611e28600185612882565b9350601f1990920191602001611e11565b8215611197576000600019600885021c198251865482169119161782525050505050565b6020811115611e74578082828560045afa50505050565b6000600019600883021c1983518551821691191617835250505050565b600080611e9e8460f01c90565b9150816000611eac86611d06565b60ff161115611ee057828401602001519150611ec88260c81c90565b611ed3906020612882565b611edd9082612882565b90505b83518114611f275783516040517f521b3d330000000000000000000000000000000000000000000000000000000081526100dd918391600401918252602082015260400190565b509250929050565b60408051600180825281830190925260609160009190602080830190803683370190505090508281600081518110611f6957611f6961280a565b602090810291909101810191909152604080517f6d756473746f7265000000000000000000000000000000000000000000000000928101929092527f486f6f6b730000000000000000000000000000000000000000000000000000006030830152600091611fd79101610522565b905061054e611fe9826000845161163a565b6123c7565b60007f86425bff6b57326c7859e89024fe4f238ca327a1ae4a230180dd2f0e88aaa7d9838360405160200161202593929190612b96565b60408051601f1981840301815291905280516020909101209392505050565b60208304840193506020838161205c5761205c612790565b06925082156120b55760208390036000600019600884021c1990506008850281811c91508451811c90508119875416828216178755508183116120a0575050611197565b6120ab600187612882565b9550509182019190035b602081106120de57815184556120cc600185612882565b935060209190910190601f19016120b5565b8015611197576000600019600883021c198554845182169119161785555050505050565b60007f86425bff6b57326c7859e89024fe4f238ca327a1ae4a230180dd2f0e88aaa7d9838360405160200161202593929190612bb5565b6000601082901b611d0e565b60006121548460ff85166123d8565b9050815161216d8260c58111156112c4576112c461286c565b146121c4576121878160c58111156112c4576112c461286c565b82516040517f521b3d33000000000000000000000000000000000000000000000000000000008152600481019290925260248201526044016100dd565b60006121d08787611fee565b905060006121de8686612404565b9050610305828286612458565b60006121f684612139565b6122009084612ac9565b905061220f868683855161246d565b600061221c878784611d4f565b9050611004818461249f565b6040805160018082528183019092526000918291906020808301908036833701905050905082816000815181106122615761226161280a565b602090810291909101810191909152604080517f6d756473746f7265000000000000000000000000000000000000000000000000818401527f736368656d61000000000000000000000000000000000000000000000000000060308201528151808203909301835281019052600090611d24906122dd90612820565b83611fee565b6060816040516020016122f891815260200190565b6040516020818303038152906040529050919050565b6060600061231f8360ff86166123d8565b905060006123388260c58111156112c4576112c461286c565b905060006123468888611fee565b905060006123548688612404565b90506123618284836124ab565b9998505050505050505050565b6060600061237b83612139565b6123859085612ac9565b90506000612394878784611d4f565b905060006123af8360ff166123a98a8a611d17565b90611608565b90506123bb8282612503565b98975050505050505050565b60606000610d278360146000612511565b60006123f0836123e9846004612882565b6008021b90565b60f81c60c5811115610d2757610d2761286c565b600080805b8360ff168110156124505761243261242186836123d8565b60c58111156112c4576112c461286c565b61243c9083612882565b91508061244881612b30565b915050612409565b509392505050565b60006020820190506111978484838551612044565b60006124798585612102565b90506000612485825490565b90506124958160ff86168561263a565b8083559050610468565b61110582600083612458565b60608267ffffffffffffffff8111156124c6576124c66127f4565b6040519080825280601f01601f1916602001820160405280156124f0576020820181803683370190505b5090506020810161245085858584611da8565b6060610d27838360006124ab565b6060600061251f8560801c90565b90506fffffffffffffffffffffffffffffffff851660008461255757612546866008612aec565b612552906101006127c9565b61255a565b60005b9050600086838161256d5761256d612790565b04905061257a87846127e0565b156125ed5760405162461bcd60e51b815260206004820152603d60248201527f756e7061636b546f41727261793a207061636b65644c656e677468206d75737460448201527f2062652061206d756c7469706c65206f6620656c656d656e7453697a6500000060648201526084016100dd565b602080820201604051955080860160405250808552600060208601855b8383101561262c578051851c825260019290920191602090910190890161260a565b505050505050509392505050565b600083816126488260c81c90565b90506000612659878760ff16611608565b905080851061267d5761266c81866127c9565b6126769083612882565b9150612694565b61268785826127c9565b61269190836127c9565b91505b60006126a1876005612aec565b6126ac906007612882565b905078ffffffffffffffffffffffffffffffffffffffffffffffffff841660c884901b1793507fffffffffff0000000000000000000000000000000000000000000000000000006008820290811c19851660d888901b90911c176123bb565b803563ffffffff81168114611c1957600080fd5b6000806040838503121561273257600080fd5b61273b8361270b565b91506127496020840161270b565b90509250929050565b634e487b7160e01b600052601160045260246000fd5b600063ffffffff80831681851680830382111561278757612787612752565b01949350505050565b634e487b7160e01b600052601260045260246000fd5b600063ffffffff808416806127bd576127bd612790565b92169190910692915050565b6000828210156127db576127db612752565b500390565b6000826127ef576127ef612790565b500690565b634e487b7160e01b600052604160045260246000fd5b634e487b7160e01b600052603260045260246000fd5b80516020808301519190811015612841576000198160200360031b1b821691505b50919050565b600063ffffffff8381169083168181101561286457612864612752565b039392505050565b634e487b7160e01b600052602160045260246000fd5b6000821982111561289557612895612752565b500190565b600081518084526020808501945080840160005b838110156128ca578151875295820195908201906001016128ae565b509495945050505050565b8381526060602082015260006128ee606083018561289a565b905060ff83166040830152949350505050565b60005b8381101561291c578181015183820152602001612904565b838111156111975750506000910152565b60006020828403121561293f57600080fd5b815167ffffffffffffffff8082111561295757600080fd5b818401915084601f83011261296b57600080fd5b81518181111561297d5761297d6127f4565b604051601f8201601f19908116603f011681019083821181831017156129a5576129a56127f4565b816040528281528760208487010111156129be57600080fd5b610707836020830160208801612901565b8381526060602082015260006129e8606083018561289a565b9050826040830152949350505050565b60008151808452612a10816020860160208601612901565b601f01601f19169290920160200192915050565b838152606060208201526000612a3d606083018561289a565b8281036040840152612a4f81856129f8565b9695505050505050565b848152608060208201526000612a72608083018661289a565b60ff85166040840152828103606084015261070781856129f8565b600060ff821660ff8103612aa357612aa3612752565b60010192915050565b600061ffff80831681851680830382111561278757612787612752565b600060ff821660ff841680821015612ae357612ae3612752565b90039392505050565b6000816000190483118215151615612b0657612b06612752565b500290565b606081526000612b1e60608301866129f8565b60208301949094525060400152919050565b60006000198203612b4357612b43612752565b5060010190565b82815260406020820152600061054e60408301846129f8565b848152836020820152608060408201526000612b82608083018561289a565b905060ff8316606083015295945050505050565b838152826020820152606060408201526000611236606083018461289a565b838152826020820152608060408201526000612bd4608083018461289a565b8281036060840152600681527f6c656e677468000000000000000000000000000000000000000000000000000060208201526040810191505094935050505056fea2646970667358221220d43935a669685b7032040dc11a6ee088159035c92364423e02312e08db619ce264736f6c634300080d0033",
    "linkReferences": {}
  },
  "methodIdentifiers": {
    "move(uint32,uint32)": "16254d8d",
    "spawn(uint32,uint32)": "a3a8e72d"
  },
  "id": 109
}